:020000040800F2
:1000000020310120D90100086B0A0008670A0008A6
:10001000690A000895070008790F00080000000031
:10002000000000000000000000000000850C000837
:10003000F908000800000000090B0008890D0008FD
:10004000F3010008F3010008F3010008F3010008C0
:10005000F3010008F3010008F3010008F3010008B0
:10006000F3010008F3010008F3010008F3010008A0
:10007000F3010008F3010008F3010008F301000890
:10008000F3010008F3010008F3010008F301000880
:10009000F3010008F3010008F3010008FD0800085F
:1000A000F3010008F3010008F3010008F301000860
:1000B000F3010008F3010008F3010008F301000850
:1000C000F3010008F3010008F3010008F301000840
:1000D000F3010008F3010008F3010008F301000830
:1000E000F3010008F3010008F3010008F301000820
:1000F000F3010008F3010008F3010008F301000810
:10010000F3010008F3010008F3010008F3010008FF
:10011000F3010008F3010008F3010008F3010008EF
:1001200099070008F3010008F3010008F301000833
:10013000F30100080000000000000000F3010008C7
:10014000F3010008F3010008F3010008F3010008BF
:10015000F3010008F3010008F3010008F3010008AF
:10016000F3010008F3010008F3010008F30100089F
:10017000F3010008F3010008F3010008000000008B
:1001800000000000F3010008000000000000000073
:10019000F30100080000000000000000F301000867
:1001A000000000000000000000000000F301000853
:1001B000F3010008F3010008F3010008F30100084F
:1001C000F3010008DFF80CD000F03EFA00480047C9
:1001D0004D17000820310120064880470648004797
:1001E000FEE7FEE7FEE7FEE7FEE7FEE7FEE7FEE7E7
:1001F000FEE7FEE78D0D0008C5010008202A06DB9A
:10020000CB17203A41FA02F043EAE07306E041FAE4
:1002100002F3D040C2F120029140084319467047D2
:1002200040EA01039B0703D009E008C9121F08C078
:10023000042AFAD203E011F8013B00F8013B521EF8
:10024000F9D270472DE9FE4F804681EA0300C00FC6
:100250000C46009021F0004123F00045B8EB02006D
:10026000A94105D24046214690461C460B4602460F
:1002700023F00040104347D0270DC7F30A00C3F313
:100280000A510290401A019040286BDAC3F3130020
:1002900040F4801B0098924620B10023D2EB030A61
:1002A00063EB0B0B01985946C0F14002504600F039
:1002B0004FF906460D4650465946019AFFF79EFFF4
:1002C00010EB08006141002487EA115284EAE773C9
:1002D0001A4340D0009A62B3019A012A4FEA0752AA
:1002E00015DC001B61EB02014FF0004202EA0752ED
:1002F000CDE90042001C41F5801132462B4600F04A
:1003000055F903B0BDE8F08F40462146F9E7001BE0
:1003100061EB0201001C41F5801300185B412018BD
:10032000A2F5001747EB030140EAD570B6196D41FD
:1003300011E06D084FEA360645EAC0754FEA0752EC
:10034000001B61EB0201001C41F5801149084FEAD6
:1003500030000019514132462B4603B0BDE8F04F42
:1003600000F015B90098012240000023D0EB0202F2
:1003700063EBE073009821464FEAE074B8EB0000AD
:1003800061EB0401E9E783F000435BE781F00041A2
:1003900058E72DE9F04D81EA030404F0004B21F009
:1003A000004514464FF0000A23F0004150EA0502D0
:1003B00020D054EA01021DD0C5F30A570246C5F306
:1003C0001303C1F31300C1F30A5640F4801543F43C
:1003D0008013A7EB0608101BD64608F2FD3873EB16
:1003E000050002D308F1010801E092185B41B8F161
:1003F000000F03DA00200146BDE8F08D00204FF425
:100400008011064684460EE0171B73EB050705D3E3
:10041000121B63EB050306434CEA010C49084FEA43
:10042000300092185B4150EA0107EDD152EA030017
:1004300012D082EA040083EA0501084305D0101BAC
:10044000AB4106D20122002306E000224FF0004318
:1004500002E06FF0010253101AEB06004CEB08515A
:1004600010EB0A0041EB0B01BDE8F04D00F08FB836
:100470000EB5C10F80EAE0700844CA07002140F2BF
:1004800033438DE80E000A460B4600F08FF803B0A8
:1004900000BD0EB540F2334102910021CDE90011BB
:1004A0000A460B4600F082F803B000BD3EB5CA17FD
:1004B000CB0F002450405140C0186141DA0740F290
:1004C00033430094CDE901232246234600F06EF821
:1004D00003B030BD70B5C1F30A5201F000450024ED
:1004E000C1F3130140F2FF3341F480119A4202DA62
:1004F0000020014670BD40F233439A42A2F23342DB
:1005000003DC524200F033F801E000F021F82C4304
:10051000F0D00023D0EB030063EB010170BD0000BD
:1005200030B5041E71F1000404DB4FF0004440427A
:1005300064EB0101141E73F1000405DB1C464FF04F
:100540000043524263EB0403994208BF904230BD1E
:10055000202A04DB203A00FA02F100207047914083
:10056000C2F1200320FA03F3194390407047202A78
:1005700004DB203A21FA02F00021704721FA02F34D
:10058000D040C2F12002914008431946704710B58F
:10059000141E73F1000408DA401C41F100019218A6
:1005A0005B411A4301D120F0010010BD2DE9F04D4F
:1005B00092469B4611B1B1FA81F202E0B0FA80F2A4
:1005C00020329046FFF7C4FF04460F4640EA0A0077
:1005D00041EA0B0153465A46084313D0114653EAE9
:1005E000010019D0C8F140025046FFF7C0FF054690
:1005F0000E46504659464246FFF7AAFF084305D02B
:10060000012004E020463946BDE8F08D0020054376
:1006100046EAE0762C4337430A986305E40AA0EBE8
:1006200008000022FD0A44EA47540A3002D500209F
:100630000146E9E7010510196941DDE9084500199E
:100640006941BDE8F04DA2E7064C074D06E0E068C1
:1006500040F0010394E8070098471034AC42F6D309
:10066000FFF7B4FD741A0008941A00080029816885
:1006700002D041F0010101E021F0010181607047E9
:10068000084B10B5D3F8042307490A40D0E90014F9
:100690002143D0E90240044321431143C3F804132A
:1006A00010BD000000200140E030FCFF00298168FF
:1006B00002D041F4807101E021F4807181607047C3
:1006C0000029816802D041F4007101E021F4007139
:1006D0008160704730B542680F4B0C791A400B6847
:1006E00042EA04221343436082680C4B4D791A405E
:1006F000D1E9034323438C6844EA4504234313436D
:100700008360C26A097D22F47002491EC9B242EABE
:100710000151C16230BD0000FFFEFFFCFDF7FFC0CC
:1007200070B5072409290AD9C568A1F10A0606EBA4
:100730004606B440A543B3401D43C56007E00569C4
:1007400001EB4106B440A543B3401D4305611F239F
:10075000072A09D2446B521E02EB820293409C434B
:1007600091400C43446370BD0D2A09D2046BD21F23
:1007700002EB820293409C4391400C43046370BDA2
:10078000C46A0D3A02EB820293409C4391400C43B1
:10079000C46270BDFEE7000070B50E4E0E4D3146CE
:1007A000284600F03FF80D4C28B13146284600F0AD
:1007B00019F8012020700A4E2846314600F032F820
:1007C000002805D03146284600F00CF802202070A1
:1007D00070BD000010400010106402402400002092
:1007E00020800010074A904201D2074801E00548E6
:1007F0001038064A8B0001EA020101D5C16070473A
:100800008160704710640240006002407D0F7D0FE0
:100810000029016802D041F0010101E021F001014D
:100820000160704730B5104A0024904201D20F4B4E
:1008300001E00D4B103B0E4A114205D01E2202EA88
:10084000D12502682A4002E0406900F08002880059
:1008500001D5586800E01868064B1840084201D0DE
:1008600002B10124204630BD106402400060024005
:100870003C0F3C0F7D0F7D0F0B0607D5436912B16E
:1008800043F0800301E023F080034361802908D016
:10089000002A026801F01E0101D00A4300E08A43E9
:1008A0000260704730B50368124ACC6813400A688A
:1008B0002243D1E905452C432243CC6922430C6AEB
:1008C00022434C6A22438C6A22434C6B22438C6B3A
:1008D00022431A430260426922F00703D1E90B2444
:1008E00022431A4342610A6942604A688260896809
:1008F000C16030BD3F801CF07047000010B5802003
:1009000000F01EF8002810D0084809494FF4807202
:10091000437813B14A83002101E00A830121417029
:10092000BDE81040802000F005B810BD2400002074
:10093000000002400149086070470000143C01407B
:10094000034A0146002012680A4200D00120704785
:10095000143C014030B51A498379026853B30B68DF
:1009600093430B600A1D13680468A3431360027964
:100970000A441368046823431360114A0832136859
:100980000468A3431360131D1C680568AC431C6016
:100990004479102C05D021440A68006802430A609B
:1009A00030BD116804682143116019680068014373
:1009B000196030BD0079084401689143016030BD81
:1009C000003C0140F0B50023012403270D6804FA20
:1009D00003F21540954242D1D0F800C05E0007FAFC
:1009E00006F52CEA050CC0F800C091F804C0D0F858
:1009F00000E00CFA06FC4CEA0E0CC0F800C091F8BE
:100A000004C0BCF1010F02D0BCF1020F1FD1D0F81D
:100A100008C02CEA050CC0F808C091F805C0D0F851
:100A200008E00CFA06FC4CEA0E0CC0F808C0D0F83E
:100A300004C02CEA020CC0F804C0426891F806C059
:100A40000CFA03FC1FFA8CFC42EA0C024260C268FA
:100A5000AA43C260CA79C568B2402A43C2605B1C1F
:100A6000102BB3D3F0BDFEE7FEE7704730B50F2281
:100A7000C47801780123FCB1144C246801F1E02111
:100A800004F4E064C4F5E064C4F30724C4F104058D
:100A9000E2404478AC408578154025432A0181F82E
:100AA0000024007800F01F018B404009800000F115
:100AB000E020C0F8003130BD01F01F00834048093C
:100AC000800000F1E020C0F8803130BD0CED00E086
:100AD0000B4B10B51A6840F60344A24302431A6058
:100AE0000848026842F004020260012905D020BFD4
:100AF000016821F00401016010BD30BFF8E700007B
:100B00000070004010ED00E070470000044A00292A
:100B1000116801D0014300E081431160704700007B
:100B200030380240044A0029116801D0014300E036
:100B3000814311607047000040380240044A002998
:100B4000116801D0014300E081431160704700004B
:100B50004438024070B52B4A11682B4B11F00C053C
:100B600007D05C10042D06D0111F082D05D00C2DC8
:100B700017D003602DE004602BE00D68C5F38056AC
:100B80000D6805F03F0516B1B4FBF5F301E0B3FBCA
:100B9000F5F30C680968C4F388146343C1F3014199
:100BA00012E00D68C5F380560D6805F03F0516B1DB
:100BB000B4FBF5F301E0B3FBF5F30C680968C4F38B
:100BC00088146343C1F30271491C4900B3FBF1F17E
:100BD000016011680F2303EA11110C4B5C5C016882
:100BE000E14041601468072505EA94241C5D21FA60
:100BF00004F48460126805EA52329A5CD140C16004
:100C000070BD0000083802400024F40000000020FD
:100C100002460020510901290BD002290CD00849B5
:100C2000096802F01F02012393400B4200D001200B
:100C3000704703497439F3E70149091FF0E70000E1
:100C4000743802400248006800F00C007047000051
:100C500008380240024900220A70087070470000FC
:100C60000238024001490866704700000000474210
:100C7000034A116821F0030101431160704700002D
:100C8000083802407047000010B58A0721F00304BD
:100C90000849130F21440F22D1F808489A40944381
:100CA000C1F80848D1F8082898400243C1F808283C
:100CB00010BD0000003001401CB500202E490190FD
:100CC00000900A6842F480320A604FF4A0430A6838
:100CD00002F400320092019A521C0192009A12B959
:100CE000019A9A42F3D10A68920342D501200090FA
:100CF00021484030026842F0805202601F4802687A
:100D000042F4404202601C4A0832136813601368C0
:100D100043F400431360136843F4A0531360141F9B
:100D2000174B23600B6843F080730B600B689B01CB
:100D3000FCD5016841F4803101604168C903FCD5EC
:100D4000016841F40031016041688903FCD50D4917
:100D500040F205700860106820F003001060106811
:100D600040F0020010601068C0F381000228FAD140
:100D70001CBD00901CBD0000003802400070004007
:100D8000085A4077003C024000F088B8124810B57D
:100D9000016841F4700101601048016841F00101EF
:100DA00001600E4A00210832116002680C4B1A40A3
:100DB0000260031D0B4A1A60026822F4802202605E
:100DC00006480C300160FFF777FF03494FF00060E1
:100DD0008039086010BD000088ED00E00038024056
:100DE000FFFFF6FE103000240029018802D041F0F8
:100DF000010101E021F0010101807047828822F0A9
:100E00007002828082880A438280704730B50288EF
:100E1000164B174C98420DD0A0420BD0B0F1804F2A
:100E200008D0144DA84205D0134DA84202D0134D4E
:100E3000A84203D122F070054A882A43104DA842E7
:100E400006D0104DA84203D022F440750A892A43E7
:100E500002804A68C2620A880285984201D0A04294
:100E600001D1897A01860121818230BD00000140D3
:100E7000000401400004004000080040000C004055
:100E800000100040001400404FF0FF31416000218D
:100E900001800181418081727047000003484168F0
:100EA000002902D04168491E41607047240000209B
:100EB0000029818902D041F4005101E021F4005160
:100EC000818170477FB50446008A0D4620F4405169
:100ED000E88808432082A08941F20C618843A988F0
:100EE0002A8911436A8902431143A181A08A20F40F
:100EF0004071A8890843A0826846FFF72BFE1A4874
:100F0000844202D01948844201D1039800E002983B
:100F1000A189090400EBC00101EB0010296801D58B
:100F2000490000E08900B0FBF1F26420B2FBF0F16F
:100F300009010B096FF018056B4302EB8302A389CB
:100F40001D044FF0320306D503EBC202B2FBF0F0F2
:100F500000F0070005E003EB0212B2FBF0F000F036
:100F60000F00084320817FBD0010014000140140A4
:100F7000C1F3080181807047FEE702E008C8121F34
:100F800008C1002AFAD170477047002001E001C172
:100F9000121F002AFBD1704710B5214800240460BD
:100FA00044608460C460FFF76BFB1D484FF0007124
:100FB00018380160012101714471090781604FF007
:100FC000C061C0E9031404210175164C0146204696
:100FD000FFF780FB01231A4600212046FFF7A0FB04
:100FE0000123022219462046FFF79AFB0123032220
:100FF00004212046FFF794FB012304220821204608
:10100000FFF78EFB01212046FFF75AFB0121204606
:10101000FFF74CFB2046BDE810400121FFF726BB3F
:1010200080000020002001402DE9FF4F8A462DED71
:10103000088BB3B03D98850800201F901E90269025
:10104000229004460A902490219001460990064679
:1010500080462090F748CDE9071000F5485900F583
:10106000C84000F5485B039000200C90CDE91000CB
:101070000D900E90CDE91200CDE914001690CDE947
:1010800017001A9019901B908DF870000021864669
:101090000B9024E01AF80170269B0AEB010CFA1859
:1010A00026929CF80120249B4EEB0404D218219F29
:1010B00024924EEB070021909CF80220229B099F6E
:1010C000D2184EEB0700229209909CF80330209F23
:1010D000079ADB194EEB02002093091D07903D98FB
:1010E0008142D7D32846FFF7C3F9CDE9000141EC8F
:1010F000180B21462698FFF7D9F953EC182BFFF768
:1011000048F99FEDCD9B53EC192BFFF79BF8FFF7A8
:10111000E1F907460C46DDE9000141EC180B219985
:101120002498FFF7C3F953EC182BFFF732F953EC6F
:10113000192BFFF787F8FFF7CDF921912490DDE90E
:10114000000141EC180B09992298FFF7AFF953EC15
:10115000182BFFF71EF953EC192BFFF773F8FFF765
:10116000B9F909912290DDE9000141EC180B0799CA
:101170002098FFF79BF953EC182BFFF70AF953EC73
:10118000192BFFF75FF8FFF7A5F907912090DDE92C
:10119000000141EC180B38462146FFF787F953EC64
:1011A000182BFFF7F6F841EC1A0BDDE9000141ECD2
:1011B000190B21992498FFF779F953EC192BFFF7B4
:1011C000E8F841EC1B0BDDE9000141EC190B099932
:1011D0002298FFF76BF953EC192BFFF7DAF841EC83
:1011E000190BDDE9000141EC180B07992098FFF776
:1011F0005DF953EC182BFFF7CCF8CDE930013C201A
:10120000381A74F1000004DA0B9840F001008DF8F0
:101210007000249821993C3871F1000005DA9DF89E
:10122000700040F002008DF87000229909983C3956
:1012300070F1000005DA9DF8700040F004008DF8B0
:101240007000209907983C3970F1000005DA9DF88C
:10125000700040F008008DF87000002004461BE08C
:101260001AF80010089AC91B42F824100AEB000172
:10127000249B4A7800F10400D21A49F824208A7885
:10128000229BD21A039B43F82420C978209A8A1AF9
:101290004BF8242004F101043D998842E0D300205A
:1012A00027E00899DDE9123751F820104943CA17A1
:1012B00011EB080859F8201056414943CA17C918BC
:1012C0007A41CDE912120399DDE9143751F8201063
:1012D0004943CA17C9187A41CDE914125BF82010A6
:1012E000DDE916374943CA17C9187A41CDE9161204
:1012F000401CA842D5DBDDE91220B2EB080160EB0F
:101300000600CDE91210DDE91421B2EB080061EB13
:101310000601CDE91401DDE91620B2EB080160EB0E
:101320000600CDE91610CDE910863E98854201D918
:10133000804600E0A84600204DE000210A460B460A
:10134000044612E0089F261A57F8247059F826C060
:10135000641C07FB0C11DDF80CC05CF826C05BF8C0
:10136000266007FB0C2207FB0633AC42EADB1F9E1C
:10137000B1420DDB0ADC0C9E002801DB074600E0D1
:101380004742002E00DA7642B74201DA1F910C90F4
:101390001E998A420DDB0ADC0D99002801DB064606
:1013A00000E04642002900DA49428E4201DA1E92EC
:1013B0000D900A998B420DDB0ADC0E99002801DBA7
:1013C000024600E04242002900DA49428A4201DA3C
:1013D0000A930E90401C4045AFDB3E99C5F10100D9
:1013E0004942884257D2084655E000210A460B463A
:1013F00005EB00080C4612E0089F261A57F82470E7
:1014000059F826C0641C07FB0C11DDF80CC05CF811
:1014100026C05BF8266007FB0C2207FB0633444519
:10142000EADB1F9EB14213DB10DC0C9E002807DBB9
:10143000074606E020650020000000000000E03FB5
:101440004742002E00DA7642B74201DA1F910C9033
:101450001E998A420DDB0ADC0D99002801DB064645
:1014600000E04642002900DA49428E4201DA1E922B
:101470000D900A998B420DDB0ADC0E99002801DBE6
:10148000024600E04242002900DA49428A4201DA7B
:101490000A930E90401C0028A7DB4FF0000B08E0D9
:1014A00038B101280DD0022814D0BBF1030F20D190
:1014B00019E0394FB0EE4A8AF0EE6A8ACDF808A0FA
:1014C00017E00AF10100354FB0EE4B8AF0EE6B8A5F
:1014D00002900EE00AF10200314FB0EE498AF0EEC0
:1014E000698A029005E00AF1030002902D4F9DEDFC
:1014F000308B4FF00008386860B9D9F80000FEF76B
:10150000B7FF53EC182BFFF70BF801D2012401E0D1
:101510004FF0FF34012616E057F8260068B902980C
:1015200010F82600FEF7B5FF53EC182BFEF7F8FF76
:1015300001D2012001E04FF0FF30444301D508F112
:1015400001080446761CAE42E6DB5FEA0B0007D0DA
:1015500001280AD002280BD0BBF1030F0DD10AE0FD
:101560004FF0010BCDF86080ABE7CDF8648004E06C
:10157000CDF8688001E0CDF86C800BF10100834666
:1015800004288DDB48220CA93B98FEF749FE33B0B6
:10159000BDEC088BBDE8FF8F206500202097002060
:1015A00020C9002020FB002010B50120FFF752FBCE
:1015B0003120FFF72DFB0028FAD00120FFF752FB66
:1015C0003920FFF725FB0028FAD00220FFF750FB57
:1015D000FFF738FB0828FBD110BD000010B51648F6
:1015E000164A0021C0E9001200F14802C0E90221B8
:1015F0004FF4C852C0E904214FF48062C0E90621CB
:101600009210C0E908124FF44032C0E90A210122C9
:10161000C0E90C2181630A4C01462046FFF742F9DC
:10162000012210212046FFF727F92046BDE810408F
:101630000121FFF7EDB80000900000204C20014090
:101640001064024030B5012185B00846FFF75EFA0C
:1016500001218803FFF772FA00248DF804408DF809
:1016600006408DF80740032080258DF80500009581
:1016700069461048FFF7A6F907210020FFF704FB91
:10168000029501258DF80E508DF80C4010208DF834
:101690000D0002A8FFF75EF917208DF810008DF8F5
:1016A00011408DF812408DF8135004A8FFF7DEF9B1
:1016B00005B030BD000002402DE9F041154801267B
:1016C0000324066004710025134FC5710146384696
:1016D000FFF778F90F480221083001600471C571E5
:1016E00001463846FFF76EF90A48102110300160B4
:1016F0000471C57101463846FFF764F90548183092
:10170000014606600471C571BDE8F0410348FFF76A
:1017100059B90000300000200000024000040240DF
:1017200010B500F013F9FFF7C7FF00F02FF9FFF72E
:1017300089FF00F06DF900F0FDF800F043F9FFF7C4
:101740004DFFBDE81040FFF727BC000092B0FFF747
:10175000E7FF724D724C734F4FF000087878002805
:101760007ED038780028F9D06F494FF4C8563246F9
:101770008946A1F5C850FEF753FD32466B494846ED
:10178000FEF74EFD2823720069496846FFF74CFCBE
:10179000482269466148FEF743FD53212046FFF782
:1017A000E7FB20884006FCD545212046FFF7E0FBFB
:1017B00020884006FCD555212046FFF7D9FB20881C
:1017C0004006FCD595F840102046FFF7D1FB208855
:1017D0004006FCD523212046FFF7CAFB208840069F
:1017E000FCD528784646C1B22046FFF7C1FB2088C9
:1017F0004006FCD529792046FFF7BAFB2088400631
:10180000FCD5287AB046C1B22046FFF7B1FB20884C
:101810004006FCD55FF00006D5E90601C6F10702D7
:10182000D200FEF7EBFCC1B22046FFF7A1FB2088F7
:101830004006FCD5761C082EEED30026D5E908011B
:10184000C6F10702D200FEF7D9FCC1B22046FFF76D
:101850008FFB20884006FCD5761C082EEED300E0D6
:1018600054E00026D5E90A01C6F10702D200FEF7CE
:10187000C5FCC1B22046FFF77BFB20884006FCD5A3
:10188000761C082EEED30026C6F10101286BC90094
:101890000841C1B22046FFF76BFB20884006FCD50B
:1018A000761C022EF0DB0026C6F10101686BC90030
:1018B0000841C1B22046FFF75BFB20884006FCD5FB
:1018C000761C022EF0DB0026C6F10101A86BC900D0
:1018D0000841C1B22046FFF74BFB20884006FCD5EB
:1018E000761C022EF0DB0026C6F10101E86BC90070
:1018F0000841C1B22046FFF73BFB20884006FCD5DB
:10190000761C022EF0DB87F8008027E702210120F9
:10191000FFF7DEF8FFF748FE20E70000D86400205C
:101920000044004024000020D84B0020D8000020B4
:10193000D8320020044838210170012141708170A3
:10194000C170FFF793B800002C00002010B50121F2
:101950008805FFF7DBF801210846FFF7D7F80121DA
:101960000220FFF7D3F801210802FFF7E7F8012171
:101970000846FFF7D7F801214804FFF7D3F8012103
:10198000BDE810401020FFF7D9B800007CB5012158
:101990000846FFF7BBF801208DF8040000218DF800
:1019A00006108DF807000220054D4FF480748DF865
:1019B0000500009469462846FFF704F86C837CBD57
:1019C0000000024010B51048FFF75EFA0F484FF4D0
:1019D0007A414FF080440068B0FBF1F10A48491E9B
:1019E0004160002101800181418001462046FFF7CE
:1019F0000DFA20212046FFF701FA2046BDE81040ED
:101A00000121FFF7F1B90000CC00002010000020F8
:101A10007FB515480C260221066001710024C471AF
:101A200003214171114D847101462846FEF7CAFF1A
:101A3000286A40F4EE402862ADF80440ADF8064054
:101A4000ADF80840ADF80C404FF46130084C009000
:101A5000ADF80A6069462046FFF734FA01212046B6
:101A6000FFF726FA7FBD0000500000200000024072
:101A700000440040941A00080000002068000000A4
:101A80007A0F0008FC1A000868000020B830010036
:101A90008A0F000800000000010203040102030491
:101AA000060708090095BA0A0000000000000000BF
:101AB00001020304060708090000000000000000FE
:101AC0000000000000000000000000000000000016
:101AD0000000000000000000000000000000000006
:101AE00000000000000000000000000000000240B4
:0C1AF000001802400020024000080240E4
:04000005080001C529
:00000001FF
