:020000040001F9
:10F00000A846002015F401001DF401001FF40100C2
:10F0100021F4010023F4010025F4010000000000A8
:10F0200000000000000000000000000027F40100C4
:10F0300029F40100000000002BF401002DF4010070
:10F04000D9F601002FF40100F9FA01002FF40100B4
:10F050002FF401002FF40100FDF401002FF4010052
:10F060002FF401002FF401002FF401002FF4010010
:10F070002FF401002FF401002FF401002FF4010000
:10F080002FF4010041F701002FF401002FF40100DB
:10F0900065F701002FF4010069F701002FF401006A
:10F0A0002FF401002FF401002FF401002FF40100D0
:10F0B00031F701002FF40100000000000000000003
:10F0C0002FF401002FF401002FF401002FF40100B0
:10F0D0002FF401002FF401002FF4010000000000C4
:10F0E0000000000000000000000000000000000020
:10F0F0000000000000000000000000000000000010
:10F1000000000000000000000000000000000000FF
:10F1100000000000000000000000000000000000EF
:10F40000DFF80CD000F03CF800480047AD0E0200D9
:10F41000A84600200648804706480047FEE7FEE76A
:10F42000FEE7FEE7FEE7FEE7FEE7FEE7FEE7FEE7B4
:10F430008DF8010001F4010040EA01039B0703D0AD
:10F4400009E008C9121F08C0042AFAD203E011F823
:10F45000013B00F8013B521EF9D27047D2B201E0E5
:10F4600000F8012B491EFBD270470022F6E710B5C9
:10F4700013460A4604461946FFF7F0FF204610BD22
:10F48000064C074D06E0E06840F0010394E80700F1
:10F4900098471034AC42F6D3FFF7B6FFE8250200D8
:10F4A0000826020070B58C1810F8015B15F00703F0
:10F4B00001D110F8013B2A1106D110F8012B03E00D
:10F4C00010F8016B01F8016B5B1EF9D12B0705D415
:10F4D0000023521E0DD401F8013BFAE710F8013B5E
:10F4E000CB1A921C03E013F8015B01F8015B521E7A
:10F4F000F9D5A142D8D3002070BD00002DE9FC5FF2
:10F500000025DFF83891A8464FF4807601242F4675
:10F51000304602F0B5F938B1D9F80403204203D0DF
:10F52000304602F0A3F92543361D64007F1CB6B2B5
:10F53000082FEDD34FF4BE74204602F0A1F938B184
:10F54000204602F093F93E4845F00045D0F800808F
:10F550003C4E15F0FF0F15D0012700242F420DD08F
:10F5600009EB8401D1F81005D1F81015C0F304207F
:10F5700056F82420C1F3014102B190477F00641C7A
:10F58000082CEBD3002D56DA00200190401E4CE0F1
:10F59000701910F8501F90F9000021F0C004401CB1
:10F5A00038D0012000FA04FA1AEA090F32D04FEAE3
:10F5B000911B204601F07EF956F82000009010B90A
:10F5C000BBF1030F26D15146BBF1030F02D10198C5
:10F5D00008430190A00000F1A040D0F800071AEA0B
:10F5E000080FC0F3014002D0022802D012E0032825
:10F5F00010D1BBF1030F07D102281AD002212046F7
:10F6000002F00EF97F1CFFB2009818B1009A59461B
:10F61000204690476D1C042DBAD3002F0BD008480C
:10F620000068404507D080460198002781463D4646
:10F63000AEE70321E3E7BDE8FC9F00000060004067
:10F6400010050050B825002000F01F020121914054
:10F650004009800000F1E020C0F88012704700F0FF
:10F660001F02012191404009800000F1E020C0F814
:10F670008011704700F01F02012191404009800075
:10F6800000F1E020C0F80011704700F01F020121D6
:10F6900091404009800000F1E020C0F8001170475F
:10F6A00000F01F02012191404009800000F1E0209C
:10F6B000C0F8001270474907090E002806DA00F06A
:10F6C0000F0000F1E02080F8141D704700F1E020E9
:10F6D00080F80014704700002DE9F0414FF4807766
:10F6E000384601F0A7FD0124104EA50748B1384661
:10F6F00001F0A7FD0120C5F808037470002001F097
:10F70000E1F84FF48277384601F094FD00280BD0E1
:10F71000384601F096FD0220C5F80803B470BDE834
:10F72000F041012001F0CEB8BDE8F081A425002011
:10F730000149024801F0ACBA6C22002000C001402F
:10F7400007480021C0F84011C0F84411C0F8481122
:10F75000C0F84C11C0F80011C0F8041102F020BC30
:10F760000010014002F094BB074810B5406830B16A
:10F770008047002807D0BDE8104000F009BBBDE875
:10F78000104001F049BA10BD942200202DE9F0414B
:10F7900006460D4600241D2002F050F81C2002F001
:10F7A0004DF841F28838404601F054FD364F41E0B3
:10F7B000192002F043F81A2002F040F8404601F008
:10F7C00049FD192002F04AF81A2002F037F84046A5
:10F7D00001F040FD56F8240000284FF01B0002D035
:10F7E00002F03CF801E002F029F8404601F032FD59
:10F7F000192002F023F81A2002F020F84FF47A7052
:10F8000001F028FD1E2002F021F847F824004046B0
:10F8100001F020FD192002F011F81A2002F01EF864
:10F82000404601F017FD192002F008F81A2002F0F6
:10F8300005F8641CAC42BBDB42F21074204601F0B8
:10F8400009FD1C2002F00AF8204601F003FD1C20EF
:10F8500001F0F4FF204601F0FDFC00240BE000BFA6
:10F8600057F8240056F8241088424FF0110007D1B1
:10F8700001F0F4FF641CAC42F2DB0120BDE8F08132
:10F8800001F0DCFF0020F9E7A423002070B58D48CB
:10F890000023021D0178101D0124062907D11578C7
:10F8A0002D0704D10578C5F30315032D02D00629D1
:10F8B00004D00FE0854E844D75670EE015782D0756
:10F8C00008D10578C5F30315032D06D0042D04D007
:10F8D000052D02D0062909D010E04FF08055D5F84B
:10F8E00044527B4EC5F34235356002E015782D0752
:10F8F00004D10578C5F30315032D02D0062906D0DF
:10F9000011E0744D2E6826F080762E600EE015789A
:10F910002D0708D10578C5F30315032D06D0042D56
:10F9200004D0052D02D006290AD011E04FF0804501
:10F93000C5F80C31C5F81031654D2D1F2B6002E064
:10F9400015782D0704D10578C5F30315032D02D0D2
:10F95000062905D00CE05E4A0321643211600AE0FA
:10F9600015782D0704D10578C5F30315032D02D0B2
:10F9700006290DD06AE0584A0521116056497831B0
:10F980000C60554908310B603F21121D116002E0E7
:10F99000117809075AD10078C0F30310052855D112
:10F9A0004E4800684E4908604C48001D0068091D1B
:10F9B00008604A4808300068091D086047480C3054
:10F9C0000068091D0860454810300068091D08607E
:10F9D000424814300068091D08604048183000682B
:10F9E0003F49203108603D481C300068091D08600F
:10F9F0003A4820300068091D086038482430006803
:10FA0000091D0860354828300068091D0860334822
:10FA10002C300068091D08603048303000683049DB
:10FA2000403108602D4834300068091D08602B48BB
:10FA300038300068091D086028483C300068091DFE
:10FA40000860264840300068091D08602148743865
:10FA5000016841F470010160BFF34F8FBFF36F8FF6
:10FA60004FF01021D1F80002002803DBD1F8040286
:10FA7000002822DA1B4A14601B480468002CFCD0C2
:10FA80001524C1F800420568002DFCD0C1F80442DD
:10FA900001680029FCD0136001680029FCD0BFF385
:10FAA0004F8F0C48F0380168104A01F4E0611143AF
:10FAB0000160BFF34F8F00BFFDE70E490C4808609F
:10FAC00070BD0000E00F00F00DF0ADBA00C00740BF
:10FAD0003C050040FCED00E010560040040400101E
:10FAE00020C5004004E5014000E401400400FA059F
:10FAF0000090D003A82200200448017F0448002978
:10FB0000024901D002F08BBB02F0FABA10260020A5
:10FB10000020004002E008C8121F08C1002AFAD1E4
:10FB200070477047002001E001C1121F002AFBD17D
:10FB3000704700000121202803DA81400548014078
:10FB400003E0402802DA2038814009B101207047E3
:10FB500000207047FC06FFBC2DE9FC4700251788F4
:10FB60000646158090F82D001446894630B13A4675
:10FB70002146484600F098FB050009D1B0784FF0C7
:10FB80000C0A18B32088C846001DB84202D9504656
:10FB9000BDE8FC87684679DF0028F9D12088032179
:10FBA00008F8001020881921401C80B2208008F835
:10FBB00000102088401C80B2208000EB0801BDF8B6
:10FBC000000002F0A4FB218808442080F078022283
:10FBD000C8B1218896F9033001F1030C4846BC45B1
:10FBE000D5D8425421884FF0010C491C89B221809C
:10FBF00000F801C02188491C89B2218009F8013030
:10FC00002088401C20807068B8B1218890F90030AD
:10FC100001F1030C4846BC45B9D8425421880A2258
:10FC2000491C89B2218042542188491C89B2218013
:10FC300009F801302088401C2080308950B1CDE97E
:10FC400000474B460622022106F1080002F07CFB29
:10FC500005009DD1308A50B1CDE900474B460722BF
:10FC6000032106F1100002F06FFB050090D1308BEC
:10FC700050B1CDE900474B461522142106F118007A
:10FC800002F062FB050083D1306A30B13B46224668
:10FC9000494600F0B5FE0500DBD1706A30B13B4645
:10FCA0002246494601F046FA0500D2D196F82C00CA
:10FCB00038B13B4622464946304601F0C9FF0500AF
:10FCC000C7D1307838B13B4622464946304601F02C
:10FCD00063FA0500BDD128465AE70000134A002107
:10FCE000535C0BB1012203E0491C0629F8D3002222
:10FCF0000F49012806D0022809D003280CD0042877
:10FD000012D10DE0487810B10AB10120704788780F
:10FD100010B10AB102207047C87808B103207047BB
:10FD2000087908B104207047002070475122002054
:10FD3000B824002010B501220221002000F02AFC86
:10FD400008B1072810D107220221012000F022FC6F
:10FD500008B1072808D100210A22084600F01AFC41
:10FD600008B1072800D1002010BD0000BFF34F8F5D
:10FD700005480168054A01F4E06111430160BFF3E1
:10FD80004F8F00BFFDE700000CED00E00400FA0516
:10FD90000EB500210091CDE901106A4644F2010040
:10FDA000FFF7E4FF0EBD00002DE9F0470746984637
:10FDB0001446894690074FF0000526D12CB301F078
:10FDC0005DFE134E06F11000C6F80C8005704570FC
:10FDD00080F8029044607560357075701420FFF7EC
:10FDE00033FC06211420FFF766FC1420FFF742FCC9
:10FDF0000848076006211120FFF75DFC0548001F39
:10FE00000068B0600020BDE8F0870720FBE7000035
:10FE100074220020081501402DE9FC47DFF8789096
:10FE2000D9F8043073B368B3052902D20720BDE8BE
:10FE3000FC87436933B3437C012B25D0002704465C
:10FE40000025884616468DF80050684600F038F8C0
:10FE500001A802F061FAC8B1012101700F494460A4
:10FE60000968C0E90218C0E904769DF8040089F821
:10FE700001009DF8000000F047F81420FFF710FC87
:10FE80002846D4E70820D2E70F46D8E704259DF896
:10FE9000000000F039F8F3E7842200200415014047
:10FEA0000649496839B130B1416921B10021017475
:10FEB000022102F051B8082070470000842200207F
:10FEC00030B5EFF3108172B60D4A9468012324B166
:10FED0000370002900D162B630BD93604FF0E0237B
:10FEE000D3F88051074C25401560C3F88041D3F802
:10FEF000844154605A17C3F8842100220270E8E755
:10FF000030260020FC06FFBC0B498A68002A11D06D
:10FF100000280FD1EFF3108072B60B684FF0E0228B
:10FF2000C2F800314B68C2F8043100228A60002810
:10FF300000D162B67047000030260020F0B50C46B4
:10FF400093B01F210726ADF80010ADF8041000276C
:10FF500050B1C17849070DD56A4602A9FFF7FCFDEB
:10FF6000002808D102AD02E00025ADF800706CB1A8
:10FF7000E07810B1304613B0F0BD01AA0AA92046BE
:10FF8000FFF7EAFD0028F6D10AAA02E00022ADF848
:10FF90000470BDF80400C3B2BDF80000C1B2284629
:10FFA00072DFE8E72DE9F0471F46DDF820801346B1
:10FFB0008946040042D0EBB3404D01200026287052
:10FFC000EE70202219463E48FFF736FAC5E904785C
:10FFD0004FF6FF702881AE613948AE83AE77382185
:10FFE0002030FFF742FA3648217820300170A1789E
:10FFF0008170E178C170617841703149D4E904239E
:020000040002F8
:10000000C1E90C23D4E90223C1E90A23D4E9062378
:10001000C1E90E23616AE1B100F1380100F1440247
:1000200041628A60636A1B880B80616A436A8988BF
:10003000998000E002E00021436A07E00E20BDE85D
:10004000F087656AAD686D5C5554491C9D888D428A
:10005000F7D8A16AD9B11A4A9032A2F10C018A608C
:100060008162A36A9B888B80A16A836A0988198050
:100070000021836A04E0A56AAD686D5C5554491C93
:100080009D888D42F7D894F82C1080F82C10216AA6
:1000900049B10A490A310162226A52884A80216ABA
:1000A000026A09881180616801B141604946BDE872
:1000B000F04703482030FFF741BF000038220020FE
:1000C000B824002010B50188144C102918D011292B
:1000D0001CD01B2919D1007A002816D1E0780521FF
:1000E000401CB0FBF1F201FB120000BF00F018F859
:1000F00000280AD06169002907D0BDE810400847F0
:10010000C17B012901D18088208110BD002161714E
:10011000808821898842F8D10120E7E73822002031
:100120002DE9F0413D4C804686B0207848B184F8F6
:10013000038004A800F030FD0498012628B1667001
:1001400067E0082006B0BDE8F0810025A561344FC6
:10015000A583A577787810B1E078012806D0B87823
:1001600058B1E078012801D0022806D1216919B1DF
:1001700026710820884700E025714046FFF7AEFD54
:10018000E070216939B1032801D0042803D13878FF
:1001900008B1607990B1A57100950295019503951C
:1001A0008DF800508DF808501C48E178183005296A
:1001B00025D2DFE801F03008111D2100E571A6719C
:1001C00007208847E8E7A67001908DF80060ADF839
:1001D0000C50ADF80A5014E00221A17001908DF886
:1001E0000060B889ADF80C003889ADF80A0008E065
:1001F000684601F071FD02E0684601F091FDE0788B
:1002000018B1684673DF00289CD1216909B1A07834
:100210008847002096E7A570F7E700003822002005
:10022000B824002070B51E4C068800231B49E289C3
:10023000102E15D01B4D112E1CD0122E29D0502E51
:1002400017D130F8061F914213D14189022910D1EC
:100250000C3000F004F988B1BDE8704000F014BC27
:1002600084884C800469CC60406908614B70002A26
:10027000F2D070BD4FF6FF7048804B702868FFF7D2
:100280000FFE0028F5D0A1690029F2D0BDE870402A
:1002900008478268CA60C0680861DDE7582200200C
:1002A00088250020D42502007CB5054608880C4628
:1002B0000930904201D90C207CBD68466DDF0028D2
:1002C000FAD121880820685420881B21401C80B264
:1002D000208029542088401C80B220802844DDF8EA
:1002E00001100160BDF8051081802088801D80B25A
:1002F00020809DF80010490800D001212954208851
:10030000401C208000207CBD10B50446FFF78AFF0A
:1003100021460D4800F04EF8204601F023FB2088CE
:100320001B280CD02046FFF7CDFE204600F09CF89D
:100330002088112802D105490120887010BD0320B2
:10034000FFF7EEFEF1E700008823002028210020BF
:1003500030B5174B0D4604000FCB85B08DE80F006C
:1003600023D015B34FF6FF70A0822868A06100204B
:10037000A0752146684663DF002814D120788DF8E7
:1003800012000120ADF81000A21C04A9A0DF002873
:1003900009D12946204601F0A8FB002803D12946AF
:1003A000204601F04FFE05B030BD0E20FBE70000F7
:1003B000D825020010B5002822D0002920D00A88B4
:1003C000102A18D0112A18D0502A19D104468A1D93
:1003D000C888238A1231984202D15389022B10D047
:1003E000A38898420CD1A369002B09D052892046DA
:1003F000BDE810401847898801E04FF6FF718182FF
:1004000010BD084600F02BF800B10120A07510BD0A
:1004100007B584B068B1828AA2F57F43FF3B0AD05A
:10042000827D42B1BDF81820142A06D9072007B0F2
:1004300000BD0E20FBE70820F9E7002200920192A0
:10044000029203928289039106A90291ADF80020DD
:1004500001218DF80210808A6946A6DFE7E700785F
:1004600000F001007047000010B51A4C0188606868
:1004700010290ED011292BD1401E606028D1FFF722
:1004800059FC002824D02168002921D0BDE8104063
:100490000847D0B900210122084600F07BF808B1D6
:1004A00007280FD107220221012000F073F808B1BC
:1004B000072807D104220221002000F06BF820B1A8
:1004C000072802D0216801B188476068401C60603D
:1004D00010BD00003022002010B5032000F09AF972
:1004E00008B1062800D1002010BD00002DE9F0471A
:1004F00007460024244802E0641C042C41D250F832
:100500002420BA42F8D1042C3BD21F48DFF87C905B
:100510001F4E0C38A9F1140841B301290FD002294C
:100520002FD104EB440030444578002D29D0D8F871
:100530001010002925D02846BDE8F047084704EBF5
:100540004401755C0E44717861B1D8F804100F4A0B
:1005500001EB81014900133A8068FFF75DFC08B99F
:1005600088F80170B17809F80410DEE78068FFF7B9
:1005700097FC04EB4401314419F804008D78A8423B
:10058000D3D0BDE8F0870000A42502002C22002073
:100590008C24002070B50023042810D20D4D00EBF0
:1005A0004004012A02D101290CD00022094E00EB9F
:1005B0004000304461B1012906D0022906D007234A
:1005C000184670BD0D30C2B22A55F9E74270F7E700
:1005D0008270F5E78C240020044A01460020127A3C
:1005E000D20702D0084600F003B870471822002056
:1005F0002DE9F84F854EDFF810A24FF4E01CF168AA
:1006000007462CEA010C0091002071680AF10404ED
:10061000251D7F4B4FF400324FF4802B01EB810EF0
:100620008146182F16D2DFE807F00C17173A4E60F4
:100630007083868F868FEAA0A0A0A0A0CAD1D8E13F
:10064000EAEA009A4FF4F01191432160C5F8009056
:1006500086F80090BDE8F88FC4F800C04846C5F899
:100660000090DAF800C08CF4F01C5FEA8C3C09D5ED
:1006700022602860022F02D14FF4E16008E04FF4BD
:100680007A6005E02A602060022F3CD04FF4C870E9
:100690006422B0FBF2F04143377000225EE0C4F800
:1006A00000C04846C5F80090DAF800C08CF4F01C91
:1006B0005FEA8C3C04D5226028604FF44870E7E77D
:1006C0002A6020601FE0C4F800C04846C5F80090CA
:1006D000DAF800C08CF4F01C5FEA8C3C02D5226092
:1006E0002860CCE72A602060D0E7C4F800C0484604
:1006F000C5F80090DAF800C08CF4F01C5FEA8C3C7E
:10070000DED522602860C820C2E7C4F800C0484691
:10071000C5F80090DAF800C08CF4F01C5FEA8C3C5D
:1007200002D52260286001E02A602060377014E062
:10073000C4F800C04DE0DAF800002BEA00022260A5
:1007400000F48020286008E0DAF800002BEA0001BD
:10075000216000F480202860714600221868BDE8FE
:10076000F84FFFF759BB21602EE098465868FFF715
:1007700097FBD7F1110100D040B1F16801F4F011FD
:100780002160C5F80090C6F80C9063E74FF4002292
:10079000F26001290CD9C82011FB00F16420B1FBE3
:1007A000F0F1706800224143D8F80400FFF734FBF1
:1007B000F16801F4F0112960C4F800904AE74FF4A1
:1007C000F0112160C5F80090377043E74FF4E01155
:1007D00021604946C5F8009006E04FF4D011216031
:1007E0004946C5F800905A462A60BCE74FF4C0114C
:1007F00021604946C5F800904FF4C022F4E74FF459
:10080000F01129604946AEE7040500501822002087
:100810009825020070B500210C4D012455F82120C7
:10082000920002F1A042D2F8006704FA01F30340FB
:1008300000D0032326F4403646EA0343C2F80037CB
:10084000491C0429EAD3002070BD0000A425020041
:1008500005494FF0FF32082841F8202002D3084410
:1008600080F8482070470000B8250020F0B54FF010
:10087000FF3512B10023082601E008230C260C4C9A
:1008800005E000BF54F823707F1C04D05B1CB3420A
:10089000F8D32846F0BD26185DB286F8305044F8EB
:1008A0002310002AF5D1E11881F84800F1E7000093
:1008B000B82500200249084490F930007047000034
:1008C000B825002070B5084C050009D01034216807
:1008D000002907D008682060496828468847F6E75D
:1008E0000834F4E770BD0000A42500202DE9F05F76
:1008F00026484168F1B3DFF898B00E688146DBF80E
:10090000004087688078E11B21F07F45ED1CB0B97D
:10091000DFF880804FF48030C8F84403C8F804033F
:100920001120FEF791FE1120FEF7A4FE4FF0010A00
:10093000C8F800A02F2000F0D3FC89F802A0B5422F
:1009400000D23546124BE8193C3320F07F40186046
:10095000DBF800105A46091B21F07F41001B20F0F4
:100960007F40C91C81420FD9106818602F2000F009
:10097000B7FC00E004E0BDE8F05F1120FEF790BE98
:10098000BDE8F05F01F07AB8BDE8F09F7422002066
:100990000415014000100140FFB5002301246D46FD
:1009A000CA5CFF2A13D0D60922F0800245F8232022
:1009B00004FA02F601D0114F01E0104F3F1D3E60D6
:1009C0000326920002F1A042C2F8006703E04FF054
:1009D000FF3245F823205B1CDBB2042BE0D3036815
:1009E0002946002003EB800451F82020C4F860253C
:1009F000401CC0B20428F5D3FFBD0000080500501C
:100A00002DE9F04117880646B81D14460D46984258
:100A100002D90C20BDE8F0813188072206290AD3CB
:100A20004FF4486C4FF6FF73614501D9994202D1EA
:100A30007088062801D21046ECE7604501D998423B
:100A4000F9D1994203D0984201D08142F3D80520D0
:100A5000E85520881221401C80B22080295420882B
:100A6000401C80B220804119308801F050FC218860
:100A7000084480B220804119708801F048FC218828
:100A8000084420800020C5E7F8B5134800F050F96D
:100A9000114D0026114C0C3D30B16169B9B10120F6
:100AA0008DF80000684611E0287820B1616971B1C5
:100AB0008DF80060F6E7687858B1A1680848002210
:100AC0000068FFF7A9F910B1A16901B188472E703C
:100AD000F8BD6168F2E7000064220020882500204C
:100AE000D425020010B50021032000F086FE00216D
:100AF000042000F082FE0021052000F07EFE00218F
:100B0000062000F07AFE0021072000F076FE00218A
:100B1000082000F072FE0021122000F06EFE00217D
:100B2000132000F06AFE192000F070FE1A2000F079
:100B30006DFE1B2000F06AFE1D2000F067FE1C20E9
:100B400000F064FE1F2000F061FE0021BDE81040AF
:100B50001E2000F052BE00000E4910B50A784C78F5
:100B60000023A24212D0521CD2B20A70022A00D133
:100B70000B70084A0B78183252F8232002608868FC
:100B8000104420F07F408860012010BD03600020E9
:100B900010BD00007422002020B10349496E01609D
:100BA00000207047032070473C2600200EB516A198
:100BB0009DF8080020F00F00401C20F0F0001030DD
:100BC0008DF808000D2202A87CDF08B1FFF7E0F8DD
:100BD0000020009001900621ADF80400ADF800104F
:100BE0004FF4C8701021ADF80600ADF80210684649
:100BF0007ADF08B1FFF7CCF8002077DF002801D0BA
:100C0000FFF7C6F80EBD00004E6F726469635F5552
:100C10004152545F30000000F8B51C4C2078002889
:100C200032D0E068002658B10025607800282BD12A
:100C3000684648DF052805D030B1FFF7A9F80AE07B
:100C40000125F2E7012606E0009800F0C3FB2169C8
:100C500009B1009888479DB96078002814D1608850
:100C6000ADF800006946A06861DF052803D020B117
:100C7000FFF78EF804E0012502E0D4E9020188477D
:100C8000002ED2D0002DE6D0F8BD00009422002026
:100C900070B50C460546102100F005FE68B14FF412
:100CA00088763146284600F0F3FD30B131462846BB
:100CB00000F0F3FD2168012088472021284600F03C
:100CC000F2FD68B14FF48A763146284600F0E0FD27
:100CD00030B13146284600F0E0FD21680220884707
:100CE0008021284600F0DFFD68B14FF48E76314652
:100CF000284600F0CDFD30B13146284600F0CDFD4C
:100D00002168002088474FF482763146284600F05B
:100D1000BFFD00280AD03146284600F0BEFD012064
:100D200020712168BDE870400320084770BD0000B5
:100D3000054940880A88904204D34988884201D8EE
:100D400001207047002070475C2200202DE9F0430D
:100D5000264CA4F110092278D9F8048099F80350A0
:100D6000404694F801C0D9F8086031E002EB420334
:100D70006168521C01EBC301A378D2B2934200D147
:100D800000220B78022B02D0032B21D11DE0034659
:100D90004F68194603E0B94203D00B46C969B9B19F
:100DA000F9E7A9B18B4205D1C06918B9104E0125E8
:100DB000B56000260F68C969D96149B10B683B4429
:100DC0000B6005E00174C06900E000210028F9D142
:100DD0009445CBD1C9E9010689F80350404502D0BA
:100DE0000120BDE8F0830020FBE700008422002002
:100DF000001001402DE9F0412A4F0446002607F17A
:100E00001005D7F804803EE002D02046E4691DE0DA
:100E10002878696800EB4002401CC0B201EBC201B7
:100E20002870AA78904200D12E700A784868012A6A
:100E30002BD1027C4ABB8A684260CA6882600A6918
:100E4000C26049698161F97801B146604368BA6856
:100E5000DFF854C0991A21F07F41614502D28268BF
:100E6000114406E0D11A826821F07F418A4202D9FA
:100E7000511A016000E0066046600121866001743D
:100E8000C66101F04BF8002CBED128786978884201
:100E9000BED17968414502D00120BDE8F081002033
:100EA000FBE7000074220020FFFF7F000127B80746
:100EB000A6B00760D0F800110029FBD00023974AA4
:100EC00005211846FEF770FF08B1FEF761FF934950
:100ED000002350226439184600F082FF08B1FEF763
:100EE00057FF6A460121002000F064FF08B1FEF7B9
:100EF0004FFF1720ADF81000684600F051FF08B111
:100F0000FEF746FF864800F041FF08B1FEF740FFBC
:100F1000FFF74CFE834800908048002669467830F1
:100F2000FFF716FA08B1FEF733FF382101A8FEF7E4
:100F30009CFA02208DF804008DF8066005208DF8DB
:100F4000070038210FA8FEF790FA77481490ADF803
:100F50004C7020211DA8FEF788FA402021908DF8C2
:100F60007770B4202290714B1DAA0FA9009601A89A
:100F7000FFF718F808B1FEF70BFF112000F046FC50
:100F8000112000F05BFC112000F068FCFFF7AAFDC7
:100F90000324CDE900460122002311460F2000F072
:100FA00001FCCDE90046012200231146102000F08B
:100FB000F9FB0F2000F042FC102000F03FFC19204C
:100FC00000F03CFC1A2000F039FC1B2000F036FC3D
:100FD0001D2000F033FC1C2000F030FC1F2000F02E
:100FE0002DFC0320FFF79CF808B1FEF7D1FEDFF8D7
:100FF0003881DFF83CB141F2883AA8F10C08444648
:1010000098F80100F0B3667088F8037054465046B3
:1010100000F020F944482A213C30FEF7B7FB0028B5
:101020002046F5D000F016F91F2000F017FC2046EE
:1010300000F010F91F2000F001FC204600F00AF932
:101040001F2000F00BFC0F2000F008FC102000F027
:1010500005FC5C46201D04AB07C883E80700324846
:10106000002204A90C3000F0FBFA08B1FEF790FE54
:101070002820079614340896ADF81C0094E8070061
:1010800001AB00E00DE083E8070007A800902648C8
:101090000223012269460C3000F032FB01F0C4F952
:1010A000ADE7A07880B1A670E67001F0B4F91E48F3
:1010B0000C3000F05DFB26701321608976DF00287C
:1010C0009DD0FEF765FE9AE76079002897D066719B
:1010D000207910B188F8046001E088F80470DFF826
:1010E00048900024142509F1140906E0142504F1A0
:1010F0001400282801D3C4F128050848AAB209EB36
:1011000004017830FFF784F90028F6D12C44282C0C
:10111000ECD301210B2000F0A3F970E7102300208D
:1011200009030200091902003421002041190200BC
:101130007825020070B5144682880E460546208840
:10114000111D0144921C994201D8FE2A01D90C209C
:1011500070BD521C32542088FF21401C80B2208078
:1011600031542088401C80B220808119288801F0E9
:10117000CEF82188084480B22080AA8842B1A968AC
:1011800041B13044FEF758F92088A98808442080EE
:10119000002070BD072070BDF8B50E4601781446DA
:1011A0000546012901D1687830B12088821C9A4215
:1011B0002DD8012902D006E00720F8BD6978014446
:1011C000891C994223D8181A801E87B2ADF8007086
:1011D0002188B01C084469467DDF0028EDD12878BD
:1011E000022805D1BDF80010B94201D809210AE052
:1011F0000821012805D16878B84202D8ADF800006E
:1012000001E0ADF80070BDF80000FE2801D90C2007
:10121000F8BD2288401CB0542088401C80B2208039
:1012200031542088401C2080BDF8001008442080E4
:101230000020F8BD00F180400068002800D00120A7
:10124000704708B500F180400021016000680090FF
:1012500008BD000000283ED01F49204A096800BF91
:1012600000BF00BF00BF00BF00BF00BF00BF914272
:101270002FD000BF00BF00BF00BF00BF00BF00BF36
:1012800000BF00BF00BF00BF00BF00BF00BF00BF66
:1012900000BF00BF00BF00BF00BF00BF00BF00BF56
:1012A00000BF00BF00BF00BF00BF00BF00BF00BF46
:1012B00000BF00BF00BF00BF00BF00BF00BF00BF36
:1012C00000BF00BF00BF00BF00BF00BF00BF00BF26
:1012D00000BF401EC3D17047A82200200024F400A4
:1012E00000283ED01F49204A096800BF00BF00BF48
:1012F00000BF00BF00BF00BF00BF91422FD000BFA2
:1013000000BF00BF00BF00BF00BF00BF00BF00BFE5
:1013100000BF00BF00BF00BF00BF00BF00BF00BFD5
:1013200000BF00BF00BF00BF00BF00BF00BF00BFC5
:1013300000BF00BF00BF00BF00BF00BF00BF00BFB5
:1013400000BF00BF00BF00BF00BF00BF00BF00BFA5
:1013500000BF00BF00BF00BF00BF00BF00BF401EF6
:10136000C3D17047A82200200024F40010B50B4C14
:10137000207808B1852010BD0020A0606060206149
:10138000E060062100F02BF800F05CFD012108B9B7
:10139000034801602170002010BD0000A42500203A
:1013A0001805004038B500208DF800006846FEF7AB
:1013B00087FD074C207808B9FFF7D8FFE068401C8C
:1013C000E0600120A0709DF80000FEF79DFD38BD93
:1013D000A4250020002801D1FFF774BA70474907FF
:1013E000090E002806DA00F00F0202F1E02282F86E
:1013F000141D03E000F1E02282F8001400F01F0247
:10140000012191404009800000F1E020C0F88012E5
:10141000C0F800117047000010B5044600F016FB3C
:1014200028B12046BDE81040002100F0F9B920465F
:1014300000F018FB00280FD02046FFF73BFA074AC0
:1014400002EB8001D1F8103523F00103C1F810350B
:1014500001218140C2F8081310BD00000060004067
:101460002DE9F0478846814600F0F0FA0124224E2B
:101470000028484618D0FFF71DFA304490F848007D
:101480008009032802D0012806D007E01B48006825
:1014900004FA09F4204201D1022100E00321484668
:1014A000BDE8F04700F0BCB900F0DCFA002820D01D
:1014B0004846FFF7FFF90546114F4FF4807007EBE0
:1014C000850100EB8500D1F8102580B242F00102C1
:1014D000C1F8102500F0CAF9B8F1000F09D048464C
:1014E000FFF7E8F956F82000002802D0AC40C7F812
:1014F0000443BDE8F0870000B82500201005005027
:10150000006000402DE9FC41DFF8A480044608EBB0
:101510000400002790F930001346C0170E46401C07
:1015200001D0082740E0F27819462046FFF79EF9DF
:101530000546401C37D0B07848B1A00000F1A0406B
:10154000D0F8001721F00201C0F8001707E00021D1
:101550007378204600910A46019100F034F9F07842
:10156000C0B11448317800EB8500D0F81025124B3B
:101570001A40C0F810254FF4F8524FF4403302EAF5
:10158000042203EA01410A43D0F810150A43C0F8C7
:10159000102509E008EB0500327810F8481F41EAF1
:1015A0008211017000E004273846BDE8FC8100008C
:1015B000B825002000600040FFE0FCFF10B50446A5
:1015C000FFF72AFF204600F04DFA40B12046FFF712
:1015D00071F90A4A002102EB8000C0F8101520467C
:1015E00000F002F92046FFF765F9C0B2FFF730F9C5
:1015F0000349FF20214481F8300010BD0060004005
:10160000B825002070B5144D95F8540008B1082095
:1016100070BD0020411E2A18401CC0B282F8301054
:101620002028F8D300242046FFF712F9641CE4B206
:101630000C2CF8D306210846FFF7D1FE4FF4BE70FC
:1016400000F014F905494FF00040C1F804030120EF
:1016500085F85400002070BDB825002000600040CF
:101660002DE9F0410D4604460079244901EBC006FE
:10167000307910B10820BDE8F0812946204632605B
:10168000FFF78AF920680127C0F8007520686B7998
:10169000AA792989C0F80C35C0F80425C0F80815C6
:1016A000AA7AE97A206842EA0121C0F81015206878
:1016B0000021C0F8001221680020C1F800034FF497
:1016C0008E71206800F0E9F84FF48871206800F00E
:1016D000E4F84FF48A71206800F0DFF84FF482716B
:1016E000206800F0DAF8306828B120682979000B0A
:1016F00040B2FFF774FE37710020BCE76C22002077
:101700002DE9F0410F46044600791849164601EBD1
:10171000C0081D463A460021206800F0CAF83A4643
:101720000121206800F0C5F8206806F0010101EBF6
:101730005602C0F81425E80701D0102007E0A807DA
:1017400004D509B1082002E0042000E0002022684E
:10175000C2F8000209B10C2300E00823EAB24146B6
:101760002046BDE8F04100F073BB00006C22002071
:1017700010B501790A4A012302EBC1020168090B85
:1017800049B201F01F04A3404909890001F1E02199
:10179000C1F8803100680021C0F80015117110BD3A
:1017A0006C22002030B541EA4201DDE9034541EAFF
:1017B0008301800041EA042100F1A04041EA054193
:1017C000C0F8001730BD30B541EA4201DDE90345FC
:1017D00041EA8301800041EA042100F1A04041EA8E
:1017E0000541C0F8001730BD1CB5002100910B4623
:1017F00001220191FFF7E7FF1CBD1CB500220B463B
:10180000009211460192FFF7CDFF1CBD1CB50021CF
:1018100000910B46012201911146FFF7C3FF1CBD49
:10182000800000F5E06000F1A040026822F4403240
:101830000260026842EA0141016070470121814073
:1018400001480160704700000C050050024909681A
:10185000C14001F001007047100500500121814096
:10186000014801607047000008050050034908B5B1
:101870000844002101600068009008BD006000403D
:1018800002494058012800D0002070470060004005
:101890004058002800D00120704708B5002242506F
:1018A0004058009008BDD0F80403084000D0012043
:1018B000704700EB41101368C0F820359188C0F8DC
:1018C00024159168C0F82815D168C0F82C15704708
:1018D0004058002800D00120704708B5002242502F
:1018E0004058009008BDD0F80403084000D0012003
:1018F00070474058002800D00120704708B50022EA
:1019000042504058009008BD052A13D30878532848
:1019100010D1487845280DD1887855280AD1C87843
:10192000532807D108790121044A532803D04528B8
:1019300000D191707047517070470000282100203D
:1019400010B550B103280CD10220FEF745FE002847
:1019500007D0BDE81040FEF71BBABDE8104000F00C
:1019600001BA10BD30B504460088374D89B03B2818
:1019700039D00DDC02283AD0102815D011281BD000
:10198000132822D100231A46852168897FDF23E0AE
:10199000512830D052281AD0552851D0562814D169
:1019A000A088132176DF17E00720FEF715FE08B1A7
:1019B000FEF7EEF9A08807E00020FEF70DFE08B163
:1019C000FEF7E6F94FF6FF70688109B030BD0023DD
:1019D0001A4619466889A9DF0028F6D009B0BDE883
:1019E0003040FEF7D5B9A088132176DFF4E7A08850
:1019F000002167DFF0E71022A11D04A8FDF71CFD00
:101A00009DF810100029E0D09DF81800042803D09C
:101A1000062801D00528D8D102290FD05FF0010097
:101A20008DF800004FF4C170ADF80400A08869463D
:101A3000A8DF0028C9D0FEF7ABF9C6E70220EFE720
:101A4000A0881721ADDFC7E72821002004490844FA
:101A500090F93000082801DB012070470020704712
:101A6000B82500200449084490F93000082801D224
:101A70000120704700207047B825002070B501266E
:101A800070044FF0E0210025C1F88001084C40109F
:101A9000C4F84803C4F8080366602F20FFF720FC51
:101AA000A660044C2F20A560FFF71AFCA57070BD3E
:101AB000001001407422002070B50546C87D0C4618
:101AC00000284FF4847128460AD0FFF706FFD5F8A6
:101AD0001805627EE1688854607E401C607670BDA7
:101AE000FFF7FBFED5F8180570BD30B58FB00024A8
:101AF000054607949DF81C001C2120F00F00401C97
:101B000020F0F00010308DF81C009DF81D0020F032
:101B10000F00401C20F0F00010308DF81D009DF8E3
:101B20001E0020F00600801C8DF81E006846FDF7A0
:101B30009CFC9DF80000019440F010008DF800001E
:101B400007A8CDE904400394069428788DF83A005C
:101B50000320ADF838000D949DF83400142120F0D6
:101B60000F00401C20F0F00010308DF834009DF87C
:101B7000350020F00F00401C20F0F00010308DF8F0
:101B800035009DF8360020F00600801C20F018007B
:101B900040F001008DF8360008A8FDF766FC0EA89D
:101BA00008900DA809900120ADF828001420ADF888
:101BB0002A40ADF82C00688805F10C0308AA694694
:101BC000A2DF0FB030BD1FB501238DF800308DF8B6
:101BD00008100192D0E90012684690471FBD00002E
:101BE00010B50446FDF7A6FF40B1002C09DA04F059
:101BF0000F0000F1E02090F8140D06E042F2010021
:101C000010BD04F1E02090F800044109082914D225
:101C100099B1012911D004290FD005290DD00B4805
:101C20000122816861B1610950F8213004F01F047C
:101C3000A240134340F8213005E042F2020010BDFB
:101C40002046FDF722FD002010BD000030260020B8
:101C50002DE9F0410746806A14468846C8B300253E
:101C600031E000BFB96A05EB450001EB8006B088A2
:101C7000801CFE2802D90C20BDE8F0812288401C7F
:101C800008F8020020881622401C80B2208008F844
:101C900000202088401C80B2208000EB08013088A2
:101CA00000F035FB2188084480B22080B28842B120
:101CB000B16871B14044FDF7BFFB2088B18808448A
:101CC00020806D1CEDB297F82C00A842CAD80020E5
:101CD000D2E7FFE70720CFE710B50F490F4C0A8A7C
:101CE00042818A8A8281097891B1617981B9E179E9
:101CF00071B102210172084904202031C8700648E0
:101D000000212030FEF71AF9002804D1052000E058
:101D10000320A070002010BDB8240020382200202D
:101D200010B50E490E4C0A8B42818A8B82810A784B
:101D3000042182B1627972B9E27962B1022202723F
:101D400006482030C1700021FEF7F8F8002804D1C1
:101D50000620A07000E0A170002010BDB824002073
:101D60003822002010B50020FEF736FC08B1FEF73F
:101D70000FF8FEF7B1FB08B1FEF70AF832DF0028D2
:101D800003D0BDE81040FEF703B810BD18B10349F9
:101D9000C860002070470E20704700009422002089
:101DA0001CB5034901910091694660DF1CBD00002C
:101DB0002821002070B50E46054614461C21104609
:101DC000FDF753FB012020800021A16121752672BF
:101DD000657205B1A072002070BDFDF7C7BF00009D
:101DE0002DE9F041074619B188074FF0000402D0F1
:101DF0000720BDE8F081114D4FF0E0200126A960D9
:101E00006A806B60D0F8000110F0010F03D03446F7
:101E10000020FDF724FC0A49384610DF070005D0F2
:101E200014B10020FDF731FC3846E2E72E70FFF7D1
:101E3000B9FABDE8F0411620FFF7D2BE9422002087
:101E4000DB1D02000148007870470000942200204A
:101E500070B5044602201D460871086870B18221E1
:101E6000500700D59221100701D541F02001D0067E
:101E700001D521F080012068C0F800134FF4827171
:101E80002068FFF70AFD20680121415170BD000064
:101E90002DE9F84F204C00256846D4E901B6FEF73D
:101EA0005BFE8046FEF752FF0746A946B8F1000FD9
:101EB00025D00023009ACC46606819E007680146E7
:101EC000974202D9BA1A026014E0C1F800C0D1F8F2
:101ED0000C80D21BC8693B448A46B8F1000F07D07A
:101EE000F71827F07F47C1E90178CAF81C500D4662
:101EF0000028E3D160602846FEF77CFF04E0284616
:101F0000FEF778FF00B917B15846FEF7EFFC84F8EA
:101F10000390BDE8F88F0000742200200D4B10B52F
:101F2000596831B102680C68A24204D8A21A0A604A
:101F3000C161586010BD0B4603E00B46C969121B16
:101F400021B10C689442F8D3A41A0C600260C161FC
:101F5000D86110BD742200207CB5064600240D46D1
:101F60008DF800406846FDF7ABFF01A800F0D4F9FA
:101F700070B10570094946609DF8040048709DF8ED
:101F80000000FDF7C1FF1420FDF78AFB20467CBD51
:101F900004249DF80000FDF7B7FFF7E78422002036
:101FA0002DE9F0411D4D6C68002C35D01C480027F0
:101FB0000068A968B846401A20F07F462068B04201
:101FC00015D82246361A0744E469107C68B182F8B5
:101FD0001080EB6833B1D2E90501984728B1FDF7CD
:101FE000D7FE02E0D2E905108847002CE6D1297817
:101FF0006878814206D1401CC0B26870022801D1C5
:1020000085F8018005486978183040F82170BDE8EE
:10201000F0411420FDF744BBBDE8F081742200209C
:102020000415014070B50C4605464FF48E71FFF75C
:1020300054FCA18AA068415CA08A401CA082C5F81B
:102040001C1570BD30B58FB005461C216846FDF7E4
:102050000CFA00249DF80000019440F00C008DF86B
:102060000000039404940594069428788DF83600B3
:102070000220ADF834000C949DF83000142120F0BB
:102080000F00401C20F0F00010308DF830009DF85B
:10209000310020F00F00401C20F0F00010308DF8CF
:1020A00031009DF8320020F00600801C20F018005E
:1020B00040F001008DF8320007A8FDF7D6F90DA811
:1020C00007900CA808900120ADF824001420ADF86A
:1020D0002640ADF8280068882B1D07AA6946A2DFB4
:1020E0000FB030BD1FB500228DF800208DF808100C
:1020F000816801918275D0E90012684690471FBD42
:102100002DE9FF470C4605464FF40071FFF7EBFB46
:1021100001274FF40178002618B34FF4927949460D
:102120002846FFF7D5FBE0B149462846FFF7D5FB27
:10213000C5F80883A07E00B96F6002208DF800000A
:10214000D5F88004C5F880040390E07D8DF8080080
:10215000E0680190E6752676D4E90012684690475B
:1021600027E004212846FFF7BEFB10B34FF484712B
:102170002846FFF7ADFBE0B121462846FFF79CFC5F
:10218000E07D617E884214D1207E38B1617EE268B4
:10219000E0752069E0602676667607E0A07E00B9EB
:1021A0006F60C5F80883E675617EE2682046FFF738
:1021B0000AFD4FF48E7841462846FFF789FB88B127
:1021C000A08AA17D884204D221462846FFF72AFF33
:1021D00008E041462846FFF780FBA17D11B120466B
:1021E000FFF780FF4FF4A27841462846FFF770FBC7
:1021F000002812D041462846FFF76FFBA07E00B1B1
:102200002F60E07D002808D0E675617EE26804B0AA
:102210002046BDE8F047FFF7D6BCBDE8FF872DE9B3
:10222000FF410C464FF4927705463946FFF761FBB4
:102230000026C0B139462846FFF760FB02208DF822
:102240000000D5F88004C5F880040390D5F83C055B
:102250008DF80800E0680190E6752676D4E9001252
:102260006846904724E04FF4887739462846FFF7C0
:1022700040FBE8B139462846FFF740FBD5F83C055E
:10228000C1B2E07D884213D1207E60B1E268D5F80A
:10229000000220F02000C5F80002207EE0752069D1
:1022A000E060267601E0E675E2682046FFF78BFCE9
:1022B0004FF4A27739462846FFF71BFB68B1394631
:1022C0002846FFF71BFBE07D38B1E675D5F83C05E5
:1022D000E268C1B22046FFF776FC4FF490763146B3
:1022E0002846FFF706FB00280FD031462846FFF7A7
:1022F00005FBA07D002808D0D5F84C0504B0C1B27C
:102300002046BDE8F041FFF7EDBEBDE8FF81087053
:10231000000A4870022070470A4A10B55378947832
:10232000591CC9B28C4200D1002114788C4201D1D1
:10233000002010BD0170506803EB430100EBC100A9
:1023400010BD0000842200202DE9FC411646DDE985
:102350000854CDE900541F468046022200F00CF8D4
:10236000002807D1CDE900543B46102231464046B3
:1023700000F002F8BDE8FC812DE9FC5F0026DDE9F4
:102380000C4B994692468E4680462788354630E06B
:10239000D8F80400002200EB85006946006801902F
:1023A00001A865DF002830D19DF8000050451FD1FD
:1023B0000EB1002100E0022122880844111859457D
:1023C00022D846B9521C90B2208009F800E020883B
:1023D000401C20800126218801A801EB09026946E2
:1023E00065DF002811D120889DF800100844208066
:1023F0006D1CB8F80000A842CADC56B12088C01B8A
:10240000401E80B2FF2802D90C20BDE8FC9F09F8CD
:1024100007000020F9E710B50B20FEF7FDFFBDE82F
:1024200010400B20FFF7CAB808B5FFF7EBF808B16A
:10243000FDF7AEFC0748084A6946006800900B208B
:10244000FFF760F808B1FDF7A3FC01210B20FFF7AF
:1024500007F808BD782502005D24020070B50B283E
:102460007ED1FEF7D9FF434C04F110066069A0F558
:102470000071ED3937D10320FFF7E8F900F00105CD
:102480000420FFF7E3F9022101EA4000054305209B
:10249000FFF7DCF9042101EA800005430620FFF77D
:1024A000D5F9082101EAC00005430720FFF7CEF95E
:1024B000102101EA001005430820FFF7C7F9202189
:1024C00001EA401005431220FFF7C0F9402101EA5C
:1024D000801005431320FFF7B9F945EAC015E079EC
:1024E0003554401CE071A079002530B1012808D096
:1024F00002280DD0032815D01FE00F20FFF7AEF9FA
:1025000002E00F20FFF79AF91020FFF7A7F905E086
:102510000F20FFF7A3F91020FFF790F9A079401CD6
:10252000A0710AE00F20FFF789F91020FFF786F964
:10253000A5716069401C6061E571606940F2EE213F
:10254000884210D30B486561E57120307178417184
:10255000B1788171F178C1713178C173012000E0E7
:1025600000E0607170BDBDE8704001210B20FEF7F6
:1025700077BF000028210020020000010EFFFFFFAE
:1025800007000000500002000000000004000000EE
:1025900000000000000000004C2400206C240020FB
:1025A000982400200D0000000E0000000F00000025
:1025B000100000000D000300ED0402000E000300F7
:1025C000ED0402000F000300ED0402001000030000
:1025D000ED040200682500209ECADC240EE5A9E077
:1025E00093F3A3B50000406E0826020028210020C6
:1025F00084010000A4F401002C260200AC2200207B
:10260000FC23000024FB0100A114FFFF01A20244EF
:10261000C0014006635345555323DA0108092A389F
:0C262000091204E9580199040090D0034D
:040000050001F40101
:00000001FF
